{
  "_format": "hh-sol-artifact-1",
  "contractName": "Helper",
  "sourceName": "contracts/Helper.sol",
  "abi": [
    {
      "inputs": [
        {
          "internalType": "string",
          "name": "source",
          "type": "string"
        }
      ],
      "name": "stringToBytes32",
      "outputs": [
        {
          "internalType": "bytes32",
          "name": "result",
          "type": "bytes32"
        }
      ],
      "stateMutability": "pure",
      "type": "function"
    }
  ],
  "bytecode": "0x608060405234801561001057600080fd5b5061023c806100206000396000f3fe608060405234801561001057600080fd5b506004361061002b5760003560e01c8063cfb5192814610030575b600080fd5b61004a600480360381019061004591906100f2565b610060565b6040516100579190610142565b60405180910390f35b60008082905060008151141561007c576000801b915050610085565b60208301519150505b919050565b600061009d6100988461018e565b61015d565b9050828152602081018484840111156100b557600080fd5b6100c08482856101c8565b509392505050565b600082601f8301126100d957600080fd5b81356100e984826020860161008a565b91505092915050565b60006020828403121561010457600080fd5b600082013567ffffffffffffffff81111561011e57600080fd5b61012a848285016100c8565b91505092915050565b61013c816101be565b82525050565b60006020820190506101576000830184610133565b92915050565b6000604051905081810181811067ffffffffffffffff82111715610184576101836101d7565b5b8060405250919050565b600067ffffffffffffffff8211156101a9576101a86101d7565b5b601f19601f8301169050602081019050919050565b6000819050919050565b82818337600083830152505050565b7f4e487b7100000000000000000000000000000000000000000000000000000000600052604160045260246000fdfea26469706673582212201b74d4951069309785286cceb26951aea137a9c5d41a8381e0e2804d67c1d94164736f6c63430008000033",
  "linkReferences": {},
  "deployedLinkReferences": {}
}